:030000000204698E
:0C046900787FE4F6D8FD75812502018C37
:1004480050617373776F72643A004F4B20004552C6
:02045800520050
:10018C001204347BFF7A0479487D017F011203ABA2
:10019C001200038F23E52360F7D3940A5037E5222E
:1001AC00C394045022AE24AF257C007D0A12026653
:1001BC008E248F25E52375F00A84E5F02525F52599
:1001CC00E43524F5240522750C04AB25AA247D0105
:1001DC007F021203ECE523B40BB6E525B45129E5F7
:1001EC0024B406247BFF7A0479527D0E7F0112031E
:1001FC00ABE4F524F525F522750C04AB25AA247D7A
:10020C00017F021203EC80887BFF7A0479567D0E05
:10021C007F011203ABE4F524F525F522750C04AB34
:0D022C0025AA247D017F021203EC02019C33
:06045A00C2A58F80D2A7AD
:080460007F027EEFDEFEDFFCEF
:010468002271
:0A047500C2A612045AC2A7020460D6
:1003CE00CFCDCFCECCCE1202787C007D0A12027831
:0403DE00ED2430FFDB
:0A03E200D2A612045AC2A70204605A
:10040900AE07BE0104ED148006BE0209ED243F4487
:0604190080FF12047522B1
:100434007F381204757F0C1204757F061204757FD1
:040444000102047538
:0A047F00AC03120409AF040203E20B
:0603AB008B088A09890A93
:1003B100120409E4FDAB08AA09A90A8D827583001C
:0C03C100120239FF60061203E20D80E911
:0103CD00220D
:0C0378007F0AEA24FFFDE434FFFC7E0055
:080384008E0D8F0E8C0F8D1001
:10038C007F017E00E4FBEBC39510E50F6480F874ED
:0E039C008098500AAC0DAD0E1202660B80E880
:0103AA002230
:0403EC008A0A8B0BE3
:1003F000120409AA0CEAD39400400D120378AC0A47
:08040000AD0B1203CE1A80EDD2
:0104080022D1
:1002CD00120409C3EA64809480400B7F2B1203E271
:1002DD008A168B17800E7F2D1203E2C3E49BF51750
:1002ED00E49AF516AA15EAD39400400D120378ACE2
:0902FD0016AD171203CE1A80EDB4
:0103060022D4
:040307008A1A8B1BA8
:10030B00120409AA1CEAD3940040297F1012037A25
:10031B00AC1AAD1BCFCDCFCECCCE120278EF540F93
:10032B00FEC3940AEE5004243080022437FF1203DC
:04033B00E21A80D171
:01033F00229B
:040340008A1F8B2065
:10034400120409AA21EAD394004028EA24FFFDE418
:1003540034FFFC7F027E00120384AC1FAD20CFCD9E
:10036400CFCECCCE120278EF54012430FF1203E238
:030374001A80D21A
:010377002263
:10041F00EF1FAC0670011E4C600A7D027CC7DCFE2C
:04042F00DDFC80EC84
:0104330022A6
:10000300E4F5087590FFC2932097137F14FE120442
:100013001F3097FD7F147E0012041F750801209680
:10002300147F147E0012041F3096FD7F147E00128D
:10003300041F7508052095147F147E0012041F30D9
:1000430095FD7F147E0012041F7508092094147F08
:10005300147E0012041F3094FD7F147E0012041FCF
:1000630075080D7590FFC2922097147F147E0012BD
:10007300041F3097FD7F147E0012041F75080220B1
:1000830096147F147E0012041F3096FD7F147E00A9
:1000930012041F7508062095147F147E0012041F96
:1000A3003095FD7F147E0012041F75080A209414F6
:1000B3007F147E0012041F3094FD7F147E0012040F
:1000C3001F75080E7590FFC2912097147F147E0050
:1000D30012041F3097FD7F147E0012041F7508035E
:1000E3002096147F147E0012041F3096FD7F147E29
:1000F3000012041F7508072095147F147E00120454
:100103001F3095FD7F147E0012041F75080B209489
:10011300147F147E0012041F3094FD7F147E00129E
:10012300041F75080F7590FFC2902097147F147EEB
:100133000012041F3097FD7F147E0012041F750800
:10014300042096147F147E0012041F3096FD7F1442
:100153007E0012041F7508082095147F147E001278
:10016300041F3095FD7F147E0012041F75080C20B8
:1001730094147F147E0012041F3094FD7F147E00BC
:0801830012041F750810AF08FB
:01018B002251
:10023900BB010CE58229F582E5833AF583E022507A
:1002490006E92582F8E622BBFE06E92582F8E222C4
:0D025900E58229F582E5833AF583E49322DE
:10026600EF8DF0A4A8F0CF8CF0A428CE8DF0A42EAC
:02027600FE2266
:10027800BC000BBE0029EF8DF084FFADF022E4CC6A
:10028800F875F008EF2FFFEE33FEEC33FCEE9DEC33
:10029800984005FCEE9DFE0FD5F0E9E4CEFD22ED79
:1002A800F8F5F0EE8420D21CFEADF075F008EF2FC3
:1002B800FFED33FD4007985006D5F0F222C398FDB4
:0502C8000FD5F0EA2251
:00000001FF
