:0B04B90054696D653A003A20203A00BB
:0D04AB00011B37011C3B011A17021800004D
:1002780012044A1204777BFF7A0479B97D017F0161
:100288001203EC7BFF7A0479BF7D037F021203EC33
:10029800E51AFB7A00750C027D017F0212042DE538
:1002A8001CFB7A00750C027D047F0212042DE51BED
:0F02B800FB7A00750C027D077F0212042D80D1A6
:03000B000202C727
:0402C700C0E0C0D003
:1002CB00758A66758CFC0519E51970020518C394BF
:1002DB00E8E51894034027751800751900051BE510
:1002EB001B943C4019751B00051CE51C943C400EEF
:0E02FB00751C00051AE51A94184003751A00C8
:05030900D0D0D0E0326D
:10044A005389F0438901C28DD28C758A66758CFCFA
:07045A00D2A9D2AFC2B92202
:10048B00AE071FEE600A7E027DC7DDFEDEFC80F04C
:01049B00223E
:10000E00E4F5277590FFC2932097107F1412048B8E
:10001E003097FD7F1412048B7527012096107F14E4
:10002E0012048B3097FD7F1412048B7527052095D3
:10003E00107F1412048B3097FD7F1412048B7527DA
:10004E00092094107F1412048B3097FD7F14120434
:10005E008B75270D7590FFD2922097107F14120486
:10006E008B3097FD7F1412048B7527022096107F1C
:10007E001412048B3097FD7F1412048B7527062003
:10008E0095107F1412048B3097FD7F1412048B751C
:10009E00270A2094107F1412048B3097FD7F1412C0
:1000AE00048B75270E7590FFD2912097107F141236
:1000BE00048B3097FD7F1412048B75270320961046
:1000CE007F1412048B3097FD7F1412048B75270753
:1000DE002095107F1412048B3097FD7F1412048B21
:1000EE0075270B2094107F1412048B3097FD7F140C
:1000FE0012048B75270F7590FFD2902097107F14E6
:10010E0012048B3097FD7F1412048B7527042096F2
:10011E00107F1412048B3097FD7F1412048B7527F9
:10012E00082095107F1412048B3097FD7F14120453
:10013E008B75270C2094107F1412048B3097FD7F43
:09014E001412048B752710AF2771
:010157002285
:06049C00C2A58F80D2A76B
:0804A2007F027EEFDEFEDFFCAD
:0104AA00222F
:0A04C400C2A612049CC2A70204A203
:10040F00CFCDCFCECCCE1201977C007D0A120197B3
:04041F00ED2430FF99
:0A042300D2A612049CC2A70204A294
:10046100AE07BE0104ED148006BE0209ED243F442F
:0604710080FF1204C4220A
:100477007F381204C47F0C1204C47F061204C47FA1
:04048700010204C4A6
:0A04CE00AC03120461AF0402042322
:0603EC008B088A09890A52
:1003F200120461E4FDAB08AA09A90A8D8275830083
:0C040200120158FF60061204230D80E96F
:01040E0022CB
:0C03B9007F0AEA24FFFDE434FFFC7E0014
:0803C5008E0D8F0E8C0F8D10C0
:1003CD007F017E00E4FBEBC39510E50F6480F874AC
:0E03DD008098500AAC0DAD0E1201850B80E821
:0103EB0022EF
:04042D008A0A8B0BA1
:10043100120461AA0CEAD39400400D1203B9AC0A6C
:08044100AD0B12040F1A80ED4F
:010449002290
:10030E00120461C3EA64809480400B7F2B12042395
:10031E008A168B17800E7F2D120423C3E49BF517CC
:10032E00E49AF516AA15EAD39400400D1203B9AC5F
:09033E0016AD1712040F1A80ED30
:010347002293
:040348008A1F8B205D
:10034C00120461AA21EAD3940040297F101203BB46
:10035C00AC1FAD20CFCDCFCECCCE120197EF540F2A
:10036C00FEC3940AEE5004243080022437FF12049A
:04037C00231A80D1EF
:01038000225A
:040381008A248B251A
:10038500120461AA26EAD394004028EA24FFFDE47A
:1003950034FFFC7F027E001203C5AC24AD25CFCD12
:1003A500CFCECCCE120197EF54012430FF12042397
:0303B5001A80D2D9
:0103B8002222
:030000000201EC0E
:0C01EC00787FE4F6D8FD7581270202330D
:10015800BB010CE58229F582E5833AF583E022505C
:1001680006E92582F8E622BBFE06E92582F8E222A6
:0D017800E58229F582E5833AF583E49322C0
:10018500EF8DF0A4A8F0CF8CF0A428CE8DF0A42E8E
:02019500FE2248
:10019700BC000BBE0029EF8DF084FFADF022E4CC4C
:1001A700F875F008EF2FFFEE33FEEC33FCEE9DEC15
:1001B700984005FCEE9DFE0FD5F0E9E4CEFD22ED5B
:1001C700F8F5F0EE8420D21CFEADF075F008EF2FA5
:1001D700FFED33FD4007985006D5F0F222C398FD96
:0501E7000FD5F0EA2233
:1001F800020278E493A3F8E493A34003F68001F2A3
:1002080008DFF48029E493A3F85407240CC8C33307
:10021800C4540F4420C8834004F456800146F6DFD6
:10022800E4800B01020408102040809004ABE47EB7
:10023800019360BCA3FF543F30E509541FFEE493CB
:10024800A360010ECF54C025E060A840B8E493A392
:10025800FAE493A3F8E493A3C8C582C8CAC583CABD
:10026800F0A3C8C582C8CAC583CADFE9DEE780BE75
:0104B8000043
:00000001FF
