:0404C300525443004C
:1001E1001204BE12046A7BFF7A0479C37D017F0188
:1001F1001203D67D557C007F801203F97D037C00BC
:100201007F821203F97F811202AD8F227F83120256
:10021100AD8F23E523C4540F75F00AA4FFE52354E1
:100221000F7C002FFBEC35F0FA750C027D017F028B
:10023100120437E522C4540F75F00AA4FFE52254D5
:100241000F7C002FFBEC35F0FA750C027D047F0268
:0502510012043780B02B
:10000300E4F5247590FFC2932097107F1412047EA9
:100013003097FD7F1412047E7524012096107F14FF
:1000230012047E3096FD7F1412047E7524052095FC
:10003300107F1412047E3095FD7F1412047E752404
:10004300092094107F1412047E3094FD7F1412044F
:100053007E75240D7590FFC2922097107F141204B1
:100063007E3097FD7F1412047E7524022096107F44
:100073001412047E3096FD7F1412047E752406202C
:1000830095107F1412047E3095FD7F1412047E7543
:10009300240A2094107F1412047E3094FD7F1412DE
:1000A300047E75240E7590FFC2912097107F141261
:1000B300047E3097FD7F1412047E7524032096106E
:1000C3007F1412047E3096FD7F1412047E7524077C
:1000D3002095107F1412047E3095FD7F1412047E48
:1000E30075240B2094107F1412047E3094FD7F142A
:1000F30012047E75240F7590FFC2902097107F1411
:1001030012047E3097FD7F1412047E75240420961A
:10011300107F1412047E3096FD7F1412047E752422
:10012300082095107F1412047E3095FD7F1412046D
:100133007E75240C2094107F1412047E3094FD7F6E
:090143001412047E752410AF248F
:01014C002290
:10047E00AE071FEE600A7E027DC7DDFEDEFC80F059
:01048E00224B
:06048F00C2A58F80D2A778
:080495007F027EEFDEFEDFFCBA
:01049D00223C
:0A04AA00C2A612048FC2A702049537
:10041900CFCDCFCECCCE12018C7C007D0A12018CBF
:04042900ED2430FF8F
:0A042D00D2A612048FC2A7020495A4
:10045400AE07BE0104ED148006BE0209ED243F443C
:0604640080FF1204AA2231
:10046A007F381204AA7F0C1204AA7F061204AA7FFC
:04047A00010204AACD
:0A04B400AC03120454AF0402042D3F
:0603D6008B088A09890A68
:1003DC00120454E4FDAB08AA09A90A8D82758300A6
:0C03EC0012014DFF600612042D0D80E987
:0103F80022E2
:0C03A3007F0AEA24FFFDE434FFFC7E002A
:0803AF008E0D8F0E8C0F8D10D6
:1003B7007F017E00E4FBEBC39510E50F6480F874C2
:0E03C7008098500AAC0DAD0E12017A0B80E842
:0103D5002205
:040437008A0A8B0B97
:10043B00120454AA0CEAD39400400D1203A3AC0A85
:08044B00AD0B1204191A80ED3B
:010453002286
:1002F800120454C3EA64809480400B7F2B12042DAF
:100308008A168B17800E7F2D12042DC3E49BF517D8
:10031800E49AF516AA15EAD39400400D1203A3AC8B
:0903280016AD171204191A80ED3C
:0103310022A9
:040332008A1A8B1B7D
:10033600120454AA1CEAD3940040297F101203A584
:10034600AC1AAD1BCFCDCFCECCCE12018CEF540F55
:10035600FEC3940AEE5004243080022437FF1204B0
:040366002D1A80D1FB
:01036A002270
:04036B008A1F8B203A
:10036F00120454AA21EAD394004028EA24FFFDE4A2
:10037F0034FFFC7F027E001203AFAC1FAD20CFCD48
:10038F00CFCECCCE12018CEF54012430FF12042DAE
:03039F001A80D2EF
:0103A2002238
:0504BE00C2B5C2B62228
:060256008C0A8D0BAB07C2
:10025C00E4FDD2B574017E00A805088005C333CE39
:10026C0033CED8F9FFEBF582EF558224FF92B4D24E
:10027C00B6C2B60DBD08DDE4FD74017E00A805080C
:10028C008005C333CE33CED8F9FFE50A5EFEE50B0D
:10029C005F4E24FF92B4D2B6C2B60DBD08DBC2B518
:0102AC00222F
:0202AD00A9079F
:1002AF00E4FDFBD2B574017E00A805088005C333B9
:1002BF00CE33CED8F9FFE9F582EF558224FF92B401
:1002CF00C2B6D2B60DBD08DDE4FDD2B6C2B630B4AB
:1002DF000D7401A805088002C333D8FC42030DBD7D
:0802EF0008E8C2B5C2B4AF0378
:0102F70022E4
:1003F9008C088D09AA07E4FDFC7F8E120256AF0214
:10040900AD09AC081202567D807C007F8E0202562F
:0300000002049E59
:0C049E00787FE4F6D8FD7581240201E1AE
:10014D00BB010CE58229F582E5833AF583E0225067
:10015D0006E92582F8E622BBFE06E92582F8E222B1
:0D016D00E58229F582E5833AF583E49322CB
:10017A00EF8DF0A4A8F0CF8CF0A428CE8DF0A42E99
:02018A00FE2253
:10018C00BC000BBE0029EF8DF084FFADF022E4CC57
:10019C00F875F008EF2FFFEE33FEEC33FCEE9DEC20
:1001AC00984005FCEE9DFE0FD5F0E9E4CEFD22ED66
:1001BC00F8F5F0EE8420D21CFEADF075F008EF2FB0
:1001CC00FFED33FD4007985006D5F0F222C398FDA1
:0501DC000FD5F0EA223E
:00000001FF
