:02000300AD0747
:10000500E4FB74807E00A803088006CEA2E713CE29
:1000150013D8F8FFEDF582EF558224FF92B4D2B6DE
:0A002500C2B60BBB08DCD2B5C2B5B1
:01002F0022AE
:10005A00AA07AF05120003AF027480A8070880023E
:10006A00C313D8FCF4F5807F017E0012007C7580F2
:02007A00FF2263
:10003000C2B5C2B67D807C007F0112005A7D407C33
:10004000007F0212005A7D207C007F0312005A7D3F
:0A005000107C007F0412005A80DAD1
:10007C00EF1FAC0670011E4C600A7D027CC7DCFED3
:04008C00DDFC80EC2B
:01009000224D
:030000000200916A
:0C009100787FE4F6D8FD7581070200308E
:00000001FF
