:10004300000304385864830000033448A8140300F1
:100053000003142858040300000304182834430041
:10006300000314285804030000033448A8140300B1
:10000300E4F509F50A1200E3E4F508E5082509908B
:10001300004393FD7C00AF081200A00508E508C368
:10002300940840E7050AE50AD3940F40DBE4F50A98
:1000330074082509F509D3942840CDE4F50980C84F
:0500E300C2B5C2B62207
:02007300AD07D7
:10007500E4FB74807E00A803088006CEA2E713CEB9
:1000850013D8F8FFEDF582EF558224FF92B4D2B66E
:0A009500C2B60BBB08DCD2B5C2B541
:01009F00223E
:1000A000AA07AF05120073AF027480A80708800288
:1000B000C313D8FCF4F5807F017E001200C2758066
:0200C000FF221D
:1000C200EF1FAC0670011E4C600A7D027CC7DCFE8D
:0400D200DDFC80ECE5
:0100D6002207
:030000000200D724
:0C00D700787FE4F6D8FD75810A02000372
:00000001FF
