:03000300010B00EE
:1002770012029775A0FE12000E8F0BE50B60F7B404
:1002870001F4050AE50AC3940240EBE4F50A80E6A7
:03000B00020223CB
:0B022300C0E0C0D075D000C000C007D4
:10022E00758A66758CFC0509E50970020508C3948C
:10023E00E8E50894034029750800750900E50A7081
:10024E000DAFA07801EF08800123D8FDF5A0E50AD7
:10025E00B4010DAFA07801EF08800103D8FDF5A021
:09026E00D007D000D0D0D0E0325E
:100297005389F0438901758A66758CFCC28DD28CAF
:0702A700D2A9D2AFC2B922B7
:10000E00E4F50C7590FFC2932097137F14FE120235
:10001E00AE3097FD7F147E001202AE750C01209655
:10002E00147F147E001202AE3096FD7F147E0012F5
:10003E0002AE750C052095147F147E001202AE30B0
:10004E0095FD7F147E001202AE750C092094147F6C
:10005E00147E001202AE3094FD7F147E001202AEAA
:10006E00750C0D7590FFD2932097147F147E00129D
:10007E0002AE3097FD7F147E001202AE750C022088
:10008E0096147F147E001202AE3096FD7F147E0011
:10009E001202AE750C062095147F147E001202AE6D
:1000AE003095FD7F147E001202AE750C0A2094145A
:1000BE007F147E001202AE3094FD7F147E00120279
:1000CE00AE750C0E7590FFD2932097147F147E00A0
:1000DE001202AE3097FD7F147E001202AE750C0335
:1000EE002096147F147E001202AE3096FD7F147E91
:1000FE00001202AE750C072095147F147E001202BA
:10010E00AE3095FD7F147E001202AE750C0B20945E
:10011E00147F147E001202AE3094FD7F147E001206
:10012E0002AE750C0F7590FFD2932097147F147E3C
:10013E00001202AE3097FD7F147E001202AE750CD7
:10014E00042096147F147E001202AE3096FD7F14AA
:10015E007E001202AE750C082095147F147E0012DC
:10016E0002AE3095FD7F147E001202AE750C0C208F
:10017E0094147F147E001202AE3094FD7F147E0024
:08018E001202AE750C10AF0C5B
:010196002246
:1002AE00EF1FAC0670011E4C600A7D027CC7DCFE9F
:0402BE00DDFC80ECF7
:0102C2002219
:0300000002019763
:0C019700787FE4F6D8FD75810C0201DED3
:1001A300020277E493A3F8E493A34003F68001F2F9
:1001B30008DFF48029E493A3F85407240CC8C3335D
:1001C300C4540F4420C8834004F456800146F6DF2C
:1001D300E4800B0102040810204080900003E47EB9
:1001E300019360BCA3FF543F30E509541FFEE49321
:1001F300A360010ECF54C025E060A840B8E493A3E8
:10020300FAE493A3F8E493A3C8C582C8CAC583CA12
:10021300F0A3C8C582C8CAC583CADFE9DEE780BECA
:0100060000F9
:00000001FF
