:03010100010800F2
:1000F000AE071FEE600A7E027DC7DDFEDEFC80F0EB
:0101000022DC
:10008F0075A0FE20B12B7F141200F030B1FD7F144C
:10009F001200F00508C3E508648094884003E4F576
:1000AF0008AF087401A807088002C333D8FCF4F521
:1000BF00A020B0CF7F141200F030B0FD7F141200DB
:1000CF00F01508C3E508648094805003750807AFE6
:1000DF00087401A807088002C333D8FCF4F5A08088
:0100EF00A26E
:03000000020003F8
:0C000300787FE4F6D8FD75810802004A01
:10000F0002008FE493A3F8E493A34003F68001F278
:10001F0008DFF48029E493A3F85407240CC8C333F2
:10002F00C4540F4420C8834004F456800146F6DFC1
:10003F00E4800B0102040810204080900101E47E4F
:10004F00019360BCA3FF543F30E509541FFEE493B6
:10005F00A360010ECF54C025E060A840B8E493A37D
:10006F00FAE493A3F8E493A3C8C582C8CAC583CAA8
:10007F00F0A3C8C582C8CAC583CADFE9DEE780BE60
:0101040000FA
:00000001FF
